{
  "_format": "hh-sol-artifact-1",
  "contractName": "Escrow",
  "sourceName": "contracts/Escrow.sol",
  "abi": [
    {
      "inputs": [
        {
          "internalType": "address",
          "name": "_nftAddress",
          "type": "address"
        },
        {
          "internalType": "address payable",
          "name": "_seller",
          "type": "address"
        },
        {
          "internalType": "address",
          "name": "_inspector",
          "type": "address"
        },
        {
          "internalType": "address",
          "name": "_lender",
          "type": "address"
        }
      ],
      "stateMutability": "nonpayable",
      "type": "constructor"
    },
    {
      "inputs": [
        {
          "internalType": "uint256",
          "name": "",
          "type": "uint256"
        },
        {
          "internalType": "address",
          "name": "",
          "type": "address"
        }
      ],
      "name": "approvalStatus",
      "outputs": [
        {
          "internalType": "bool",
          "name": "",
          "type": "bool"
        }
      ],
      "stateMutability": "view",
      "type": "function"
    },
    {
      "inputs": [
        {
          "internalType": "uint256",
          "name": "",
          "type": "uint256"
        }
      ],
      "name": "buyer",
      "outputs": [
        {
          "internalType": "address",
          "name": "",
          "type": "address"
        }
      ],
      "stateMutability": "view",
      "type": "function"
    },
    {
      "inputs": [
        {
          "internalType": "uint256",
          "name": "",
          "type": "uint256"
        }
      ],
      "name": "escrowAmount",
      "outputs": [
        {
          "internalType": "uint256",
          "name": "",
          "type": "uint256"
        }
      ],
      "stateMutability": "view",
      "type": "function"
    },
    {
      "inputs": [
        {
          "internalType": "uint256",
          "name": "_nftId",
          "type": "uint256"
        }
      ],
      "name": "escrowPayment",
      "outputs": [],
      "stateMutability": "payable",
      "type": "function"
    },
    {
      "inputs": [
        {
          "internalType": "uint256",
          "name": "_nftId",
          "type": "uint256"
        }
      ],
      "name": "finalizeTransaction",
      "outputs": [],
      "stateMutability": "nonpayable",
      "type": "function"
    },
    {
      "inputs": [
        {
          "internalType": "uint256",
          "name": "_nftId",
          "type": "uint256"
        },
        {
          "internalType": "bool",
          "name": "verdict",
          "type": "bool"
        }
      ],
      "name": "getApproval",
      "outputs": [],
      "stateMutability": "nonpayable",
      "type": "function"
    },
    {
      "inputs": [],
      "name": "getBalance",
      "outputs": [
        {
          "internalType": "uint256",
          "name": "",
          "type": "uint256"
        }
      ],
      "stateMutability": "view",
      "type": "function"
    },
    {
      "inputs": [
        {
          "internalType": "uint256",
          "name": "",
          "type": "uint256"
        }
      ],
      "name": "inspectionStatus",
      "outputs": [
        {
          "internalType": "bool",
          "name": "",
          "type": "bool"
        }
      ],
      "stateMutability": "view",
      "type": "function"
    },
    {
      "inputs": [],
      "name": "inspector",
      "outputs": [
        {
          "internalType": "address",
          "name": "",
          "type": "address"
        }
      ],
      "stateMutability": "view",
      "type": "function"
    },
    {
      "inputs": [
        {
          "internalType": "uint256",
          "name": "_nftId",
          "type": "uint256"
        },
        {
          "internalType": "bool",
          "name": "verdict",
          "type": "bool"
        }
      ],
      "name": "inspectorApproval",
      "outputs": [],
      "stateMutability": "nonpayable",
      "type": "function"
    },
    {
      "inputs": [
        {
          "internalType": "uint256",
          "name": "",
          "type": "uint256"
        }
      ],
      "name": "isListed",
      "outputs": [
        {
          "internalType": "bool",
          "name": "",
          "type": "bool"
        }
      ],
      "stateMutability": "view",
      "type": "function"
    },
    {
      "inputs": [],
      "name": "lender",
      "outputs": [
        {
          "internalType": "address",
          "name": "",
          "type": "address"
        }
      ],
      "stateMutability": "view",
      "type": "function"
    },
    {
      "inputs": [
        {
          "internalType": "uint256",
          "name": "_nftId",
          "type": "uint256"
        },
        {
          "internalType": "address",
          "name": "_buyer",
          "type": "address"
        },
        {
          "internalType": "uint256",
          "name": "_purchasePrice",
          "type": "uint256"
        },
        {
          "internalType": "uint256",
          "name": "_escrowAmt",
          "type": "uint256"
        }
      ],
      "name": "listing",
      "outputs": [],
      "stateMutability": "nonpayable",
      "type": "function"
    },
    {
      "inputs": [],
      "name": "nftAddress",
      "outputs": [
        {
          "internalType": "address",
          "name": "",
          "type": "address"
        }
      ],
      "stateMutability": "view",
      "type": "function"
    },
    {
      "inputs": [
        {
          "internalType": "uint256",
          "name": "",
          "type": "uint256"
        }
      ],
      "name": "purchasePrice",
      "outputs": [
        {
          "internalType": "uint256",
          "name": "",
          "type": "uint256"
        }
      ],
      "stateMutability": "view",
      "type": "function"
    },
    {
      "inputs": [],
      "name": "seller",
      "outputs": [
        {
          "internalType": "address payable",
          "name": "",
          "type": "address"
        }
      ],
      "stateMutability": "view",
      "type": "function"
    },
    {
      "stateMutability": "payable",
      "type": "receive"
    }
  ],
  "bytecode": "0x60806040523480156200001157600080fd5b5060405162001820380380620018208339818101604052810190620000379190620001f3565b836000806101000a81548173ffffffffffffffffffffffffffffffffffffffff021916908373ffffffffffffffffffffffffffffffffffffffff16021790555080600160006101000a81548173ffffffffffffffffffffffffffffffffffffffff021916908373ffffffffffffffffffffffffffffffffffffffff16021790555081600260006101000a81548173ffffffffffffffffffffffffffffffffffffffff021916908373ffffffffffffffffffffffffffffffffffffffff16021790555082600360006101000a81548173ffffffffffffffffffffffffffffffffffffffff021916908373ffffffffffffffffffffffffffffffffffffffff1602179055505050505062000265565b600080fd5b600073ffffffffffffffffffffffffffffffffffffffff82169050919050565b6000620001768262000149565b9050919050565b620001888162000169565b81146200019457600080fd5b50565b600081519050620001a8816200017d565b92915050565b6000620001bb8262000149565b9050919050565b620001cd81620001ae565b8114620001d957600080fd5b50565b600081519050620001ed81620001c2565b92915050565b6000806000806080858703121562000210576200020f62000144565b5b6000620002208782880162000197565b94505060206200023387828801620001dc565b9350506040620002468782880162000197565b9250506060620002598782880162000197565b91505092959194509250565b6115ab80620002756000396000f3fe6080604052600436106100f75760003560e01c806370e235111161008a578063bcead63e11610059578063bcead63e14610338578063d47b881014610363578063ed2cee9e146103a0578063fcce4883146103cb576100fe565b806370e235111461027957806377fbc4ae146102a25780638175e543146102df578063a3ad21b61461031c576100fe565b80634d870678116100c65780634d870678146101ab5780634dd4acaf146101d45780635bf8633a146102115780635d19e56c1461023c576100fe565b806308551a531461010357806312065fe01461012e5780634011640d146101595780634a57e1c914610182576100fe565b366100fe57005b600080fd5b34801561010f57600080fd5b50610118610408565b6040516101259190610e93565b60405180910390f35b34801561013a57600080fd5b5061014361042e565b6040516101509190610ec7565b60405180910390f35b34801561016557600080fd5b50610180600480360381019061017b9190610f4b565b610436565b005b34801561018e57600080fd5b506101a960048036038101906101a49190610f8b565b610502565b005b3480156101b757600080fd5b506101d260048036038101906101cd9190610ff6565b610a0d565b005b3480156101e057600080fd5b506101fb60048036038101906101f69190610f8b565b610b72565b604051610208919061106c565b60405180910390f35b34801561021d57600080fd5b50610226610ba5565b604051610233919061106c565b60405180910390f35b34801561024857600080fd5b50610263600480360381019061025e9190610f8b565b610bc9565b6040516102709190610ec7565b60405180910390f35b34801561028557600080fd5b506102a0600480360381019061029b9190610f4b565b610be1565b005b3480156102ae57600080fd5b506102c960048036038101906102c49190610f8b565b610cc6565b6040516102d69190610ec7565b60405180910390f35b3480156102eb57600080fd5b5061030660048036038101906103019190610f8b565b610cde565b6040516103139190611096565b60405180910390f35b61033660048036038101906103319190610f8b565b610cfe565b005b34801561034457600080fd5b5061034d610db7565b60405161035a919061106c565b60405180910390f35b34801561036f57600080fd5b5061038a600480360381019061038591906110b1565b610ddd565b6040516103979190611096565b60405180910390f35b3480156103ac57600080fd5b506103b5610e0c565b6040516103c2919061106c565b60405180910390f35b3480156103d757600080fd5b506103f260048036038101906103ed9190610f8b565b610e32565b6040516103ff9190611096565b60405180910390f35b600360009054906101000a900473ffffffffffffffffffffffffffffffffffffffff1681565b600047905090565b6004600083815260200190815260200160002060009054906101000a900460ff16610496576040517f08c379a000000000000000000000000000000000000000000000000000000000815260040161048d9061114e565b60405180910390fd5b806009600084815260200190815260200160002060003373ffffffffffffffffffffffffffffffffffffffff1673ffffffffffffffffffffffffffffffffffffffff16815260200190815260200160002060006101000a81548160ff0219169083151502179055505050565b6004600082815260200190815260200160002060009054906101000a900460ff16610562576040517f08c379a00000000000000000000000000000000000000000000000000000000081526004016105599061114e565b60405180910390fd5b6008600082815260200190815260200160002060009054906101000a900460ff166105c2576040517f08c379a00000000000000000000000000000000000000000000000000000000081526004016105b9906111ba565b60405180910390fd5b6009600082815260200190815260200160002060006007600084815260200190815260200160002060009054906101000a900473ffffffffffffffffffffffffffffffffffffffff1673ffffffffffffffffffffffffffffffffffffffff1673ffffffffffffffffffffffffffffffffffffffff16815260200190815260200160002060009054906101000a900460ff16610692576040517f08c379a000000000000000000000000000000000000000000000000000000000815260040161068990611226565b60405180910390fd5b600960008281526020019081526020016000206000600360009054906101000a900473ffffffffffffffffffffffffffffffffffffffff1673ffffffffffffffffffffffffffffffffffffffff1673ffffffffffffffffffffffffffffffffffffffff16815260200190815260200160002060009054906101000a900460ff16610751576040517f08c379a000000000000000000000000000000000000000000000000000000000815260040161074890611292565b60405180910390fd5b600960008281526020019081526020016000206000600160009054906101000a900473ffffffffffffffffffffffffffffffffffffffff1673ffffffffffffffffffffffffffffffffffffffff1673ffffffffffffffffffffffffffffffffffffffff16815260200190815260200160002060009054906101000a900460ff16610810576040517f08c379a0000000000000000000000000000000000000000000000000000000008152600401610807906112fe565b60405180910390fd5b6006600082815260200190815260200160002054471015610866576040517f08c379a000000000000000000000000000000000000000000000000000000000815260040161085d9061136a565b60405180910390fd5b6000600360009054906101000a900473ffffffffffffffffffffffffffffffffffffffff1673ffffffffffffffffffffffffffffffffffffffff1660066000848152602001908152602001600020546040516108c1906113bb565b60006040518083038185875af1925050503d80600081146108fe576040519150601f19603f3d011682016040523d82523d6000602084013e610903565b606091505b5050905080610947576040517f08c379a000000000000000000000000000000000000000000000000000000000815260040161093e9061141c565b60405180910390fd5b60008054906101000a900473ffffffffffffffffffffffffffffffffffffffff1673ffffffffffffffffffffffffffffffffffffffff166323b872dd306007600086815260200190815260200160002060009054906101000a900473ffffffffffffffffffffffffffffffffffffffff16856040518463ffffffff1660e01b81526004016109d79392919061143c565b600060405180830381600087803b1580156109f157600080fd5b505af1158015610a05573d6000803e3d6000fd5b505050505050565b60008054906101000a900473ffffffffffffffffffffffffffffffffffffffff1673ffffffffffffffffffffffffffffffffffffffff166323b872dd600360009054906101000a900473ffffffffffffffffffffffffffffffffffffffff1630876040518463ffffffff1660e01b8152600401610a8c939291906114d2565b600060405180830381600087803b158015610aa657600080fd5b505af1158015610aba573d6000803e3d6000fd5b5050505060016004600086815260200190815260200160002060006101000a81548160ff021916908315150217905550806005600086815260200190815260200160002081905550816006600086815260200190815260200160002081905550826007600086815260200190815260200160002060006101000a81548173ffffffffffffffffffffffffffffffffffffffff021916908373ffffffffffffffffffffffffffffffffffffffff16021790555050505050565b60076020528060005260406000206000915054906101000a900473ffffffffffffffffffffffffffffffffffffffff1681565b60008054906101000a900473ffffffffffffffffffffffffffffffffffffffff1681565b60056020528060005260406000206000915090505481565b6004600083815260200190815260200160002060009054906101000a900460ff16610c41576040517f08c379a0000000000000000000000000000000000000000000000000000000008152600401610c389061114e565b60405180910390fd5b6005600083815260200190815260200160002054471015610c97576040517f08c379a0000000000000000000000000000000000000000000000000000000008152600401610c8e90611555565b60405180910390fd5b806008600084815260200190815260200160002060006101000a81548160ff0219169083151502179055505050565b60066020528060005260406000206000915090505481565b60086020528060005260406000206000915054906101000a900460ff1681565b6004600082815260200190815260200160002060009054906101000a900460ff16610d5e576040517f08c379a0000000000000000000000000000000000000000000000000000000008152600401610d559061114e565b60405180910390fd5b6005600082815260200190815260200160002054341015610db4576040517f08c379a0000000000000000000000000000000000000000000000000000000008152600401610dab90611555565b60405180910390fd5b50565b600160009054906101000a900473ffffffffffffffffffffffffffffffffffffffff1681565b60096020528160005260406000206020528060005260406000206000915091509054906101000a900460ff1681565b600260009054906101000a900473ffffffffffffffffffffffffffffffffffffffff1681565b60046020528060005260406000206000915054906101000a900460ff1681565b600073ffffffffffffffffffffffffffffffffffffffff82169050919050565b6000610e7d82610e52565b9050919050565b610e8d81610e72565b82525050565b6000602082019050610ea86000830184610e84565b92915050565b6000819050919050565b610ec181610eae565b82525050565b6000602082019050610edc6000830184610eb8565b92915050565b600080fd5b610ef081610eae565b8114610efb57600080fd5b50565b600081359050610f0d81610ee7565b92915050565b60008115159050919050565b610f2881610f13565b8114610f3357600080fd5b50565b600081359050610f4581610f1f565b92915050565b60008060408385031215610f6257610f61610ee2565b5b6000610f7085828601610efe565b9250506020610f8185828601610f36565b9150509250929050565b600060208284031215610fa157610fa0610ee2565b5b6000610faf84828501610efe565b91505092915050565b6000610fc382610e52565b9050919050565b610fd381610fb8565b8114610fde57600080fd5b50565b600081359050610ff081610fca565b92915050565b600080600080608085870312156110105761100f610ee2565b5b600061101e87828801610efe565b945050602061102f87828801610fe1565b935050604061104087828801610efe565b925050606061105187828801610efe565b91505092959194509250565b61106681610fb8565b82525050565b6000602082019050611081600083018461105d565b92915050565b61109081610f13565b82525050565b60006020820190506110ab6000830184611087565b92915050565b600080604083850312156110c8576110c7610ee2565b5b60006110d685828601610efe565b92505060206110e785828601610fe1565b9150509250929050565b600082825260208201905092915050565b7f50726f7065727479206e6f74206c697374656400000000000000000000000000600082015250565b60006111386013836110f1565b915061114382611102565b602082019050919050565b600060208201905081810360008301526111678161112b565b9050919050565b7f496e7370656374696f6e206e6f7420617070726f766564000000000000000000600082015250565b60006111a46017836110f1565b91506111af8261116e565b602082019050919050565b600060208201905081810360008301526111d381611197565b9050919050565b7f4275796572206e6f7420617070726f7665640000000000000000000000000000600082015250565b60006112106012836110f1565b915061121b826111da565b602082019050919050565b6000602082019050818103600083015261123f81611203565b9050919050565b7f53656c6c6572206e6f7420617070726f76656400000000000000000000000000600082015250565b600061127c6013836110f1565b915061128782611246565b602082019050919050565b600060208201905081810360008301526112ab8161126f565b9050919050565b7f496e73706563746f72206e6f7420617070726f76656400000000000000000000600082015250565b60006112e86016836110f1565b91506112f3826112b2565b602082019050919050565b60006020820190508181036000830152611317816112db565b9050919050565b7f496e73756666696369656e742062616c616e6365000000000000000000000000600082015250565b60006113546014836110f1565b915061135f8261131e565b602082019050919050565b6000602082019050818103600083015261138381611347565b9050919050565b600081905092915050565b50565b60006113a560008361138a565b91506113b082611395565b600082019050919050565b60006113c682611398565b9150819050919050565b7f5472616e73666572206661696c65642e00000000000000000000000000000000600082015250565b60006114066010836110f1565b9150611411826113d0565b602082019050919050565b60006020820190508181036000830152611435816113f9565b9050919050565b6000606082019050611451600083018661105d565b61145e602083018561105d565b61146b6040830184610eb8565b949350505050565b6000819050919050565b600061149861149361148e84610e52565b611473565b610e52565b9050919050565b60006114aa8261147d565b9050919050565b60006114bc8261149f565b9050919050565b6114cc816114b1565b82525050565b60006060820190506114e760008301866114c3565b6114f4602083018561105d565b6115016040830184610eb8565b949350505050565b7f496e73756666696369656e7420657363726f7720616d6f756e74000000000000600082015250565b600061153f601a836110f1565b915061154a82611509565b602082019050919050565b6000602082019050818103600083015261156e81611532565b905091905056fea26469706673582212209fb756fed6fc08f6ad5302b38ecb091854ba3fc4236ecaa0df1721cf2006a7f664736f6c63430008180033",
  "linkReferences": {},
  "deployedLinkReferences": {}
}